:100000000C942A000C944F0C0C94380C0C940D0892
:100010000C9447000C9447000C9447000C94470044
:100020000C9447000C9447000C9447000C94BB01BF
:100030000C9447000C9447000C94AF020C944700BA
:100040000C9447000C9447000C94EE0B0C94470062
:100050000C94470011241FBECFE5D4E0DEBFCDBF16
:1000600010E0A0E6B0E0E2E0FFE102C005900D92F2
:10007000A23AB107D9F713E0A2EAB0E001C01D929D
:10008000AC33B107E1F70E94980C0C947F0F0C94ED
:100090000000AE9A83E08A95F1F70000AE980895CB
:1000A000CF93DF93D82F662311F0AC9A01C0AC98A0
:1000B000AD9884B38F6084BBC5B3C07F8D2F82950C
:1000C0008F708C2B85BB0E944900DF70DC2BD5BB69
:1000D0000E944900CF60C5BBDF91CF91089588236E
:1000E00011F0AC9A01C0AC98AD9A84B3807F84BB08
:1000F000AE9A83E08A95F1F7000093B3AE9883E05F
:100100008A95F1F70000AE9A83E08A95F1F7000036
:1001100083B39295907F8F70AE98892B089580E07D
:100120000E946F008823DCF300C000C080E00E94C2
:100130006F000895CF93C82F0E948F008C2F60E02E
:100140000E945000CF910895CF93C82F0E948F0036
:100150008C2F61E00E945000CF910895662321F416
:1001600080580E949A00089580540E949A00089531
:100170000E948F0090E0089581E00E949A00089507
:1001800082E00E949A000895CF93C82F0E948F00AA
:10019000CA3049F4803410F480E401C080E0805813
:1001A0000E949A0004C08C2F61E00E945000CF9101
:1001B0000895CF93DF93EC018881882331F0219655
:1001C0000E94C40089918823D9F7DF91CF910895C7
:1001D000CF93DF93EC01FC018491882341F02196B9
:1001E0000E94C400FE01219684918823C9F7DF9103
:1001F000CF910895CF93C82F84B38F6784BB8FE9C5
:100200009FE00197F1F700C00000A99AA89A0E9408
:10021000490081EE94E00197F1F700C000000E94D0
:10022000490095E19A95F1F700000E94490085E1A7
:100230008A95F1F70000A8980E94490095E19A95E7
:10024000F1F7000088E20E949A0088E00E949A007C
:100250000E94BC0086E00E949A008C2F0E949A00A7
:10026000CF9108955D9BFECF8CB9089510BC87E6B1
:1002700089B91BB888E98AB986E880BD0895CF930B
:10028000DF93EC018881882339F0219690E00E9469
:10029000320189918823D1F7DF91CF910895AF92F0
:1002A000BF92CF92DF92EF92FF920F931F93CF9363
:1002B000BC0180E090E020E031EE45EF55E00E9487
:1002C000110F862F972F60E177E20E94EA0E5C0102
:1002D0000F2EF4E6EF2EFF24F02DCB01B7010E9484
:1002E000EA0E6C010AE010E0CB01B8010E94EA0EB0
:1002F000C82F862F805D0E9432018C2F805D0E9466
:100300003201C601B8010E94EA0EC82F862F805D17
:100310000E9432018C2F805D0E943201C501B7011D
:100320000E94EA0E7C01CB01B8010E94EA0EC82FA0
:10033000862F805D0E9432018C2F805D0E943201E9
:10034000C701B8010E94EA0EC82F862F805D0E9467
:1003500032018C2F805D0E943201CF911F910F914D
:10036000FF90EF90DF90CF90BF90AF9008955F9B8C
:10037000FECF8CB108951F920F920FB60F921124E9
:100380002F933F934F935F936F937F938F939F939D
:10039000AF93BF93EF93FF938CB1843609F46AC097
:1003A000853648F48D32F1F1813609F4B3C08B32D1
:1003B00009F0C4C00AC0833709F497C0843709F430
:1003C00079C08F3609F0BAC063C088B599B5885135
:1003D0009C4F99BD88BD8CB78E5F8CBF8AB59BB58D
:1003E00023ED8535920720F080EE9BEA9BBD8ABD08
:1003F00088B599B523ED8535920720F080EE9BEA0C
:1004000099BD88BD83B5893C10F08EEB83BD88B55E
:1004100099B50E944F018DE00E9432018AE00E944E
:1004200032018CC088B599B5885E934099BD88BD6E
:100430008CB782508CBF8AB59BB528E08433920775
:1004400020F480EA9FE09BBD8ABD88B599B528E07D
:100450008433920720F480EA9FE099BD88BD88B577
:1004600099B50E944F018DE00E9432018AE00E94FE
:10047000320164C08F9A80E690E00E943F018DE0D7
:100480000E9432018AE00E9432018FE383BD56C090
:10049000D09A9BB32BB381E08227892B8BBB82E65A
:1004A00090E00E943F018DE00E9432018AE00E94AC
:1004B000320144C080918002909181029C01220F00
:1004C000331FC901880F991F880F991F820F931F2F
:1004D0000E944F0184E690E00E943F018DE00E945F
:1004E00032018AE00E94320129C080E484BB15BA3F
:1004F00011BA12BA80E884BB15BA11BA12BA8BE6E7
:1005000090E00E943F018DE00E9432018AE00E944B
:10051000320114C08AB59BB50E944F018DE00E9444
:1005200032018AE00E94320188B599B50E944F01DC
:100530008DE00E9432018AE00E943201FF91EF912A
:10054000BF91AF919F918F917F916F915F914F91EB
:100550003F912F910F900FBE0F901F9018951F92F3
:100560000F920FB60F921124CF92DF92EF92FF926B
:100570000F931F932F933F934F935F936F937F93AB
:100580008F939F93AF93BF93CF93DF93EF93FF939B
:10059000C091E600D091E70064B175B18E01000F03
:1005A000111F000F111F00511F4F80E090E00E94AB
:1005B000F90D209198003091990040919A00509146
:1005C0009B000E94870E20E030E040E85AE30E9442
:1005D000870E23E334E448E851E40E94FC0C2FE149
:1005E00035E843EC50E40E94600D20E030E048EC38
:1005F00052E40E94870E20E030E848E853E40E946D
:10060000FB0C20E030E048EC52E40E94870EDC0155
:10061000CB01F80180839183A283B3832196D09389
:10062000E700C093E600C436D1050CF4DCC4109298
:10063000E7001092E6006091F0007091F100809167
:10064000F2009091F3002091F4003091F500409178
:10065000F6005091F7000E94FC0C2091F8003091B8
:10066000F9004091FA005091FB000E94FC0C20918F
:10067000FC003091FD004091FE005091FF000E946F
:10068000FC0C209100013091010140910201509138
:1006900003010E94FC0C20E030E048EC52E40E9490
:1006A000600D6B017C0160910401709105018091E6
:1006B00006019091070120910801309109014091B4
:1006C0000A0150910B010E94FC0C20910C01309109
:1006D0000D0140910E0150910F010E94FC0C2091E0
:1006E00010013091110140911201509113010E94AB
:1006F000FC0C20911401309115014091160150918C
:1007000017010E94FC0C20E030E048EC52E40E940B
:10071000600D9B01AC01C701B6010E94FC0C6B018E
:100720007C01609118017091190180911A019091DA
:100730001B0120911C0130911D0140911E0150911F
:100740001F010E94FC0C2091200130912101409159
:100750002201509123010E94FC0C20912401309130
:10076000250140912601509127010E94FC0C209107
:1007700028013091290140912A0150912B010E94BA
:10078000FC0C20E030E048EC52E40E94600D9B013C
:10079000AC01C701B6010E94FC0C6B017C016091A9
:1007A0002C0170912D0180912E0190912F012091AB
:1007B00030013091310140913201509133010E945A
:1007C000FC0C20913401309135014091360150915B
:1007D00037010E94FC0C2091380130913901409181
:1007E0003A0150913B010E94FC0C20913C01309158
:1007F0003D0140913E0150913F010E94FC0C20E0E0
:1008000030E048EC52E40E94600D9B01AC01C7014E
:10081000B6010E94FC0C6B017C016091400170915B
:100820004101809142019091430120914401309116
:10083000450140914601509147010E94FC0C2091D6
:1008400048013091490140914A0150914B010E9469
:10085000FC0C20914C0130914D0140914E01509182
:100860004F010E94FC0C20915001309151014091A8
:100870005201509153010E94FC0C20E030E048EC02
:1008800052E40E94600D9B01AC01C701B6010E94B9
:10089000FC0C6B017C0160915401709155018091B9
:1008A0005601909157012091580130915901409182
:1008B0005A0150915B010E94FC0C20915C01309127
:1008C0005D0140915E0150915F010E94FC0C2091FE
:1008D00060013091610140916201509163010E9479
:1008E000FC0C2091640130916501409166015091AA
:1008F00067010E94FC0C20E030E048EC52E40E94CA
:10090000600D9B01AC01C701B6010E94FC0C6B019C
:100910007C01609168017091690180916A019091F8
:100920006B0120916C0130916D0140916E015091ED
:100930006F010E94FC0C2091700130917101409177
:100940007201509173010E94FC0C2091740130914E
:10095000750140917601509177010E94FC0C209125
:1009600078013091790140917A0150917B010E9488
:10097000FC0C20E030E048EC52E40E94600D9B014A
:10098000AC01C701B6010E94FC0C6B017C016091B7
:100990007C0170917D0180917E0190917F01209179
:1009A00080013091810140918201509183010E9428
:1009B000FC0C209184013091850140918601509179
:1009C00087010E94FC0C209188013091890140919F
:1009D0008A0150918B010E94FC0C20918C01309176
:1009E0008D0140918E0150918F010E94FC0C20E0FE
:1009F00030E048EC52E40E94600D9B01AC01C7015D
:100A0000B6010E94FC0C6B017C0160919001709119
:100A100091018091920190919301209194013091E4
:100A2000950140919601509197010E94FC0C2091F4
:100A300098013091990140919A0150919B010E9437
:100A4000FC0C20919C0130919D0140919E015091A0
:100A50009F010E94FC0C2091A0013091A1014091C6
:100A6000A2015091A3010E94FC0C20E030E048EC70
:100A700052E40E94600D9B01AC01C701B6010E94C7
:100A8000FC0C6B017C016091A4017091A501809127
:100A9000A6019091A7012091A8013091A901409150
:100AA000AA015091AB010E94FC0C2091AC01309145
:100AB000AD014091AE015091AF010E94FC0C20911C
:100AC000B0013091B1014091B2015091B3010E9447
:100AD000FC0C2091B4013091B5014091B6015091C8
:100AE000B7010E94FC0C20E030E048EC52E40E9488
:100AF000600D9B01AC01C701B6010E94FC0C6B01AB
:100B00007C016091B8017091B9018091BA01909116
:100B1000BB012091BC013091BD014091BE015091BB
:100B2000BF010E94FC0C2091C0013091C101409195
:100B3000C2015091C3010E94FC0C2091C40130916C
:100B4000C5014091C6015091C7010E94FC0C209143
:100B5000C8013091C9014091CA015091CB010E9456
:100B6000FC0C20E030E048EC52E40E94600D9B0158
:100B7000AC01C701B6010E94FC0C6B017C016091C5
:100B8000CC017091CD018091CE019091CF01209147
:100B9000D0013091D1014091D2015091D3010E94F6
:100BA000FC0C2091D4013091D5014091D601509197
:100BB000D7010E94FC0C2091D8013091D9014091BD
:100BC000DA015091DB010E94FC0C2091DC01309194
:100BD000DD014091DE015091DF010E94FC0C20E01C
:100BE00030E048EC52E40E94600D9B01AC01C7016B
:100BF000B6010E94FC0C6B017C016091E0017091D8
:100C0000E1018091E2019091E3012091E4013091B2
:100C1000E5014091E6015091E7010E94FC0C209112
:100C2000E8013091E9014091EA015091EB010E9405
:100C3000FC0C2091EC013091ED014091EE015091BE
:100C4000EF010E94FC0C2091F0013091F1014091E4
:100C5000F2015091F3010E94FC0C20E030E048ECDE
:100C600052E40E94600D9B01AC01C701B6010E94D5
:100C7000FC0C6B017C016091F4017091F501809195
:100C8000F6019091F7012091F8013091F90140911E
:100C9000FA015091FB010E94FC0C2091FC01309163
:100CA000FD014091FE015091FF010E94FC0C20913A
:100CB00000023091010240910202509103020E9411
:100CC000FC0C2091040230910502409106025091E3
:100CD00007020E94FC0C20E030E048EC52E40E9445
:100CE000600D9B01AC01C701B6010E94FC0C6B01B9
:100CF0007C01609108027091090280910A02909132
:100D00000B0220910C0230910D0240910E02509185
:100D10000F020E94FC0C20911002309111024091B0
:100D20001202509113020E94FC0C20911402309187
:100D3000150240911602509117020E94FC0C20915E
:100D400018023091190240911A0250911B020E9420
:100D5000FC0C20E030E048EC52E40E94600D9B0166
:100D6000AC01C701B6010E94FC0C6B017C016091D3
:100D70001C0270911D0280911E0290911F02209111
:100D800020023091210240912202509123020E94C0
:100D9000FC0C2091240230912502409126025091B2
:100DA00027020E94FC0C20912802309129024091D8
:100DB0002A0250912B020E94FC0C20912C023091AF
:100DC0002D0240912E0250912F020E94FC0C20E037
:100DD00030E048EC52E40E94600D9B01AC01C70179
:100DE000B6010E94FC0C6B017C0160913002709195
:100DF000310280913202909133022091340230917D
:100E0000350240913602509137020E94FC0C20912D
:100E100038023091390240913A0250913B020E94CF
:100E2000FC0C20913C0230913D0240913E025091D9
:100E30003F020E94FC0C20914002309141024091FF
:100E40004202509143020E94FC0C20E030E048EC4A
:100E500052E40E94600D9B01AC01C701B6010E94E3
:100E6000FC0C6B017C016091440270914502809101
:100E700046029091470220914802309149024091E8
:100E80004A0250914B020E94FC0C20914C0230917E
:100E90004D0240914E0250914F020E94FC0C209155
:100EA00050023091510240915202509153020E94DF
:100EB000FC0C209154023091550240915602509101
:100EC00057020E94FC0C20E030E048EC52E40E9403
:100ED000600D9B01AC01C701B6010E94FC0C6B01C7
:100EE0007C01609158027091590280915A02909150
:100EF0005B0220915C0230915D0240915E02509154
:100F00005F020E94FC0C20916002309161024091CE
:100F10006202509163020E94FC0C209164023091A5
:100F2000650240916602509167020E94FC0C20917C
:100F300068023091690240916A0250916B020E94EE
:100F4000FC0C20E030E048EC52E40E94600D9B0174
:100F5000AC01C701B6010E94FC0C6B017C016091E1
:100F60006C0270916D0280916E0290916F022091DF
:100F700070023091710240917202509173020E948E
:100F8000FC0C2091740230917502409176025091D0
:100F900077020E94FC0C20917802309179024091F6
:100FA0007A0250917B020E94FC0C20917C023091CD
:100FB0007D0240917E0250917F020E94FC0C20E055
:100FC00030E048EC52E40E94600D9B01AC01C70187
:100FD000B6010E94FC0C0E94C80DDC01CB0190936D
:100FE000CD028093CC02369AFF91EF91DF91CF91A1
:100FF000BF91AF919F918F917F916F915F914F9131
:101000003F912F911F910F91FF90EF90DF90CF9024
:101010000F900FBE0F901F9018951F920F920FB652
:101020000F9211246F927F928F929F92AF92BF92F4
:10103000CF92DF92EF92FF920F931F932F933F93E4
:101040004F935F936F937F938F939F93AF93BF93D0
:10105000CF93DF93EF93FF9314BC8091B2009091F4
:10106000B30001969093B3008093B2008E31910546
:1010700009F095C31092B3001092B20089B390E0CA
:101080009C012072307085FF04C020323105B9F414
:1010900010C08091A8009091A9008130910549F479
:1010A0008091AA009091AB0001969093AB00809341
:1010B000AA0081E090E09093A9008093A80089B3F2
:1010C00090E09C012071307084FF04C02031310514
:1010D000B9F410C08091A4009091A50081309105D1
:1010E00049F48091A6009091A70001969093A700E3
:1010F0008093A60081E090E09093A5008093A400E7
:101100008091B8009091B90001969093B9008093B6
:10111000B8008091CC029091CD0264E670E00E940C
:10112000FE0E7093AF026093AE029093E300809343
:10113000E2008EE00E94FA000E94BC000E94C00003
:101140008091AE029091AF0266E972E04AE050E011
:101150000E944E0F8091E2009091E3009C01275F76
:101160003F4F2331310598F480E090E060EB72E06E
:101170004AE050E00E944E0F8091E2009091E3001F
:101180006EEC72E04AE050E00E944E0F06C06EEC3A
:1011900072E04AE050E00E944E0F8091E200909190
:1011A000E3006EEC72E04AE050E00E944E0F809146
:1011B0009C0090919D0066E273E04AE050E00E943E
:1011C0004E0F8DE690E00E94D9008091AA0080FD2C
:1011D00005C084E790E00E94D90025C086E992E02E
:1011E0000E94D9008AE790E00E94D9008091E20035
:1011F0009091E30009968331910548F480EB92E0E9
:101200000E94D9008EEC92E00E94D90004C08EECBE
:1012100092E00E94D9008CE790E00E94D90086E21B
:1012200093E00E94D90080E061E00E94AE008091CE
:101230009E0090919F0060E173E04AE050E00E94C0
:101240004E0F40919C0050919D0024E630E0429F5B
:10125000C001439F900D529F900D11242091CC020C
:101260003091CD02821B930B62E872E04AE050E0BD
:101270000E944E0F8091A60080FD09C08FE790E08C
:101280000E94D90084E790E00E94D90027C0809195
:10129000C4029091C50289519C4F27E08F3C920770
:1012A00068F48FE790E00E94D90082E892E00E9403
:1012B000D90086E890E00E94D90008C08FE790E04E
:1012C0000E94D90082E892E00E94D90086E890E06E
:1012D0000E94D90080E193E00E94D9008091B8007B
:1012E0009091B9008830910509F059C28091A6000B
:1012F00080FD0CC0BB98C3988091B8009091B90054
:1013000001979093B9008093B800A8C081E090E065
:101310000E944F018DE00E9432018AE00E9432015A
:1013200088E087BB1092B9001092B8004091B400D9
:101330005091B5002CE330E0429FC001439F900DD7
:10134000529F900D11246AE070E00E94FE0EEB01A6
:101350007093C5026093C4028091B0009091B10077
:10136000019664E170E00E94FE0E9093B1008093BC
:10137000B000FC01EE0FFF1FE654FF4F20913A032F
:1013800030913B0380819181281B390BD183C0832D
:101390008E01020F131F10933B0300933A03C0907A
:1013A0009E00D0909F00B6016C1B7D0B882777FDB7
:1013B0008095982F0E94FB0D20919400309195000C
:1013C00040919600509197000E94870E4B015C015E
:1013D000C601880F991F880F991F9C01220F331F88
:1013E000220F331F820F931F801B910BDC01BD0165
:1013F000882777FD8095982F0E94FB0D2091900003
:101400003091910040919200509193000E94870E7C
:101410009B01AC01C501B4010E94FC0C0E94C80DE7
:10142000862F6093E4007093E500C114D10411F499
:101430001CBE08C09CB7890F8CBF8CB7843610F0D7
:1014400080E58CBF8CB7882309F41CBE1092B500D0
:101450001092B40092B380E4892782BB8091AA00E5
:1014600080FD09C08C988D9894989598D098D198C3
:10147000D898D99894C1C0919C00D0919D0084E6E1
:1014800090E0C89F8001C99F100DD89F100D1124B6
:101490006090CC027090CD02B80166197709882758
:1014A00077FD8095982F0E94FB0D20918C00309144
:1014B0008D0040918E0050918F000E94870EDC01BC
:1014C000CB018093AA029093AB02A093AC02B0939D
:1014D000AD02C0908800D0908900E0908A00F09022
:1014E0008B00C701B60120E030E04AEF54E40E94CF
:1014F000870E4B015C01BE01882777FD8095982FF0
:101500000E94FB0D9B01AC01C501B4010E94870E36
:101510004B015C01C701B6012091E8003091E90060
:101520004091EA005091EB000E94870E9B01AC01B4
:10153000C501B4010E94FB0CDC01CB018093C60203
:101540009093C702A093C802B093C902C801059640
:1015500068167906D4F110920F0310920E03809151
:10156000CA029091CB02009751F481E090E09093F1
:10157000CB028093CA028FE790E09BBD8ABDD89BC7
:1015800013C08FB58F7D8FBDD09AD8988C9A9498C0
:1015900019BC18BC8FEF9DEEA2E081509040A04096
:1015A000E1F700C000004EC08FB580688FBDD19AB2
:1015B000D99A8D9A8AB59BB58A3F910508F442C0A5
:1015C00080EF90E09BBD8ABD3DC0055010400615E0
:1015D0001705C4F11092CB021092CA0280910E033B
:1015E00090910F03009751F481E090E090930F03E6
:1015F00080930E0384E890E099BD88BDD99B13C009
:101600008FB58F778FBDD19AD9988D9A95981BBC3D
:101610001ABC8FEF9DEEA2E081509040A040E1F710
:1016200000C000000FC08FB580628FBDD09AD89ADD
:101630008C9A88B599B5853F910520F08BEE90E0A6
:1016400099BD88BD8091A2009091A3008B33910534
:1016500021F41092A3001092A2008091AE0090910C
:10166000AF0001969093AF008093AE008F3091054C
:1016700009F095C08091EE009091EF00019664E131
:1016800070E00E94FE0E9093EF008093EE008C01BC
:10169000000F111F0C511D4FD8016D917C918827AF
:1016A00077FD8095982F0E94FB0D9B01AC01609106
:1016B000E8007091E9008091EA009091EB000E94AF
:1016C000FB0CC62E872E682EF92EC091CC02D0912D
:1016D000CD02F801D183C083BE01882777FD8095B4
:1016E000982F0E94FB0D9B01AC018C2D982DA62DEF
:1016F000BF2DBC01CD010E94FC0CDC01CB0180930D
:10170000E8009093E900A093EA00B093EB001092F8
:10171000AF001092AE0020919C0030919D0084E6B5
:1017200090E0289FA001299F500D389F500D112453
:10173000CA010596C817D907BCF06AB57BB580E029
:1017400090E00E94F90D2091AA023091AB024091E5
:10175000AC025091AD020E94FB0C0E94CD0DDC0149
:10176000CB019BBD8ABD1BC045505040C417D50757
:10177000B4F468B579B580E090E00E94F90D20914D
:10178000AA023091AB024091AC025091AD020E948E
:10179000FC0C0E94CD0DDC01CB0199BD88BDFF91F1
:1017A000EF91DF91CF91BF91AF919F918F917F91F9
:1017B0006F915F914F913F912F911F910F91FF90EA
:1017C000EF90DF90CF90BF90AF909F908F907F90E1
:1017D0006F900F900FBE0F901F9018951F920F9251
:1017E0000FB60F9211242F933F938F939F93809165
:1017F000AA0080FF34C083B390E09C012078307051
:1018000087FF0DC02038310599F480919C0090919C
:101810009D00019790939D0080939C0009C080914A
:101820009C0090919D00019690939D0080939C0058
:1018300080919C0090919D00803191053CF48FE057
:1018400090E090939D0080939C0009C08B3491059B
:1018500034F08BE490E090939D0080939C009F91E6
:101860008F913F912F910F900FBE0F901F90189561
:101870001F920F920FB60F9211248F939F93809116
:10188000B4009091B50001969093B5008093B40098
:101890009F918F910F900FBE0F901F9018951F92E0
:1018A0000F920FB60F9211242F933F938F939F9314
:1018B0008091A60080FF33C080B390E09C01207827
:1018C000307087FF0DC02038310599F480919E005B
:1018D00090919F00C29790939F0080939E0009C0B3
:1018E00080919E0090919F00C29690939F0080935C
:1018F0009E0080919E0090919F00181619062CF072
:1019000010929F0010929E000AC02CE0803892072F
:1019100034F080E89CE090939F0080939E009F911C
:101920008F913F912F910F900FBE0F901F901895A0
:10193000EAEBF0E0CF01889611921192E817F907CF
:10194000D9F71092B1001092B000E4EEF2E0CF01AE
:10195000889611921192E817F907D9F71092EF00C3
:101960001092EE00E0EFF0E0CF01889640E050E00A
:10197000BA014193519361937193E817F907C9F73D
:101980001092E7001092E60087B1836487B986B1B0
:101990008F6C86B988E087BB1CBE8DE683BF1BBCFD
:1019A0001ABC8FEF90E097BD86BD82E08FBD89E1C4
:1019B0008EBD8D9A8C9A8AB38ABBDD9A8FEF83BDD8
:1019C0008EE085BD89B7806889BF80E484BF85B714
:1019D0008F6085BF8BB7806E8BBF8E9A78940E9484
:1019E00036018FEF93EDA0E381509040A040E1F7E6
:1019F00000C00000FFCF5058BB27AA270ED04DC112
:101A00003ED130F043D120F031F49F3F11F41EF469
:101A100033C10EF4E095E7FB29C1E92F4FD180F3E4
:101A2000BA17620773078407950718F071F49EF5DB
:101A300067C10EF4E0950B2EBA2FA02D0B01B90152
:101A400090010C01CA01A0011124FF27591B99F034
:101A5000593F50F4503E68F11A16F040A22F232F40
:101A6000342F4427585FF3CF469537952795A79590
:101A7000F0405395C9F77EF41F16BA0B620B730B37
:101A8000840BBAF09150A1F0FF0FBB1F661F771FA8
:101A9000881FC2F70EC0BA0F621F731F841F48F45D
:101AA000879577956795B795F7959E3F08F0B3CFE3
:101AB0009395880F08F09927EE0F979587950895CD
:101AC0000CD0EBC0E3D040F0DAD030F021F45F3F2F
:101AD00019F0CCC0511115C1CFC0F0D098F39923A3
:101AE000C9F35523B1F3951B550BBB27AA276217E2
:101AF0007307840738F09F5F5F4F220F331F441F27
:101B0000AA1FA9F333D00E2E3AF0E0E830D091505E
:101B10005040E695001CCAF729D0FE2F27D0660F4B
:101B2000771F881FBB1F261737074807AB07B0E88A
:101B300009F0BB0B802DBF01FF2793585F4F2AF0A0
:101B40009E3F510568F092C0DCC05F3FECF3983EC9
:101B5000DCF3869577956795B795F7959F5FC9F7FD
:101B6000880F911D9695879597F90895E1E0660F86
:101B7000771F881FBB1F621773078407BA0720F0FF
:101B8000621B730B840BBA0BEE1F88F7E095089568
:101B900004D06894B111B5C0089598D088F09F57CB
:101BA00090F0B92F9927B751A0F0D1F0660F771FA9
:101BB000881F991F1AF0BA95C9F712C0B13081F089
:101BC0009FD0B1E008959CC0672F782F8827B85F19
:101BD00039F0B93FCCF3869577956795B395D9F7EA
:101BE0003EF490958095709561957F4F8F4F9F4FF4
:101BF0000895E89409C097FB3EF490958095709500
:101C000061957F4F8F4F9F4F9923A9F0F92F96E948
:101C1000BB279395F695879577956795B795F111BD
:101C2000F8CFFAF4BB0F11F460FF1BC06F5F7F4F5A
:101C30008F4F9F4F16C0882311F096E911C077236C
:101C400021F09EE8872F762F05C0662371F096E875
:101C5000862F70E060E02AF09A95660F771F881F44
:101C6000DAF7880F9695879597F9089597F99F6702
:101C700080E870E060E008959FEF80EC0895002414
:101C80000A941616170618060906089500240A94E1
:101C900012161306140605060895092E0394000C67
:101CA00011F4882352F0BB0F40F4BF2B11F460FFF6
:101CB00004C06F5F7F4F8F4F9F4F089557FD90581F
:101CC000440F551F59F05F3F71F04795880F97FB00
:101CD000991F61F09F3F79F08795089512161306BA
:101CE0001406551FF2CF4695F1DF08C016161706E9
:101CF0001806991FF1CF869571056105089408951E
:101D0000E894BB2766277727CB0197F908950BD076
:101D1000C4CFB5DF28F0BADF18F0952309F0A6CFBD
:101D2000ABCF1124EECFCADFA0F3959FD1F3950F6F
:101D300050E0551F629FF001729FBB27F00DB11D4F
:101D4000639FAA27F00DB11DAA1F649F6627B00DDF
:101D5000A11D661F829F2227B00DA11D621F739FC8
:101D6000B00DA11D621F839FA00D611D221F749FD6
:101D70003327A00D611D231F849F600D211D822F1D
:101D8000762F6A2F11249F5750408AF0E1F0882364
:101D90004AF0EE0FFF1FBB1F661F771F881F915071
:101DA0005040A9F79E3F510570F060CFAACF5F3F2A
:101DB000ECF3983EDCF3869577956795B795F795A4
:101DC000E7959F5FC1F7FE2B880F911D969587952C
:101DD00097F90895AA1BBB1B51E107C0AA1FBB1F9F
:101DE000A617B70710F0A61BB70B881F991F5A95A7
:101DF000A9F780959095BC01CD01089597FB092E18
:101E000007260AD077FD04D0E5DF06D000201AF4BB
:101E1000709561957F4F0895F6F7909581959F4F46
:101E2000089597FB092E05260ED057FD04D014D037
:101E30000AD0001C38F450954095309521953F4FBD
:101E40004F4F5F4F0895F6F7909580957095619587
:101E50007F4F8F4F9F4F0895A1E21A2EAA1BBB1BE5
:101E6000FD010DC0AA1FBB1FEE1FFF1FA217B30766
:101E7000E407F50720F0A21BB30BE40BF50B661F7C
:101E8000771F881F991F1A9469F760957095809540
:101E900090959B01AC01BD01CF010895FB019F010D
:101EA000E8944230C4F04532B4F44A3029F497FB48
:101EB0001EF4909581959F4F642F77270E94EA0E1C
:101EC000805D8A330CF0895D8193CB010097A1F787
:101ED00016F45DE251931082C9010C946F0FDC017E
:101EE000FC01672F71917723E1F7329704C07C9151
:101EF0006D9370836291AE17BF07C8F30895F8948D
:021F0000FFCF11
:101F020064006F002A3130452D3100730074656D15
:101F1200703A2000206F666620002E00202000729A
:101F2200706D203A200020006F12033A0AD7233C3A
:101F3200ACC5A7365839B43B0AD7A3401900F401FF
:021F420090010C
:00000001FF
