:100000000C942A000C94CA0B0C94B30B0C940D089E
:100010000C9447000C9447000C9447000C94470044
:100020000C9447000C9447000C9447000C94BB01BF
:100030000C9447000C9447000C94AF020C944700BA
:100040000C9447000C9447000C946D0B0C944700E3
:100050000C94470011241FBECFE5D4E0DEBFCDBF16
:1000600010E0A0E6B0E0EAEEFDE102C005900D92DE
:10007000AC39B107D9F713E0ACE9B0E001C01D928B
:10008000AC32B107E1F70E940F0C0C94F30E0C9404
:100090000000AE9A83E08A95F1F70000AE980895CB
:1000A000CF93DF93D82F662311F0AC9A01C0AC98A0
:1000B000AD9884B38F6084BBC5B3C07F8D2F82950C
:1000C0008F708C2B85BB0E944900DF70DC2BD5BB69
:1000D0000E944900CF60C5BBDF91CF91089588236E
:1000E00011F0AC9A01C0AC98AD9A84B3807F84BB08
:1000F000AE9A83E08A95F1F7000093B3AE9883E05F
:100100008A95F1F70000AE9A83E08A95F1F7000036
:1001100083B39295907F8F70AE98892B089580E07D
:100120000E946F008823DCF300C000C080E00E94C2
:100130006F000895CF93C82F0E948F008C2F60E02E
:100140000E945000CF910895CF93C82F0E948F0036
:100150008C2F61E00E945000CF910895662321F416
:1001600080580E949A00089580540E949A00089531
:100170000E948F0090E0089581E00E949A00089507
:1001800082E00E949A000895CF93C82F0E948F00AA
:10019000CA3049F4803410F480E401C080E0805813
:1001A0000E949A0004C08C2F61E00E945000CF9101
:1001B0000895CF93DF93EC018881882331F0219655
:1001C0000E94C40089918823D9F7DF91CF910895C7
:1001D000CF93DF93EC01FC018491882341F02196B9
:1001E0000E94C400FE01219684918823C9F7DF9103
:1001F000CF910895CF93C82F84B38F6784BB8FE9C5
:100200009FE00197F1F700C00000A99AA89A0E9408
:10021000490081EE94E00197F1F700C000000E94D0
:10022000490095E19A95F1F700000E94490085E1A7
:100230008A95F1F70000A8980E94490095E19A95E7
:10024000F1F7000088E20E949A0088E00E949A007C
:100250000E94BC0086E00E949A008C2F0E949A00A7
:10026000CF9108955D9BFECF8CB9089510BC87E6B1
:1002700089B91BB888E98AB986E880BD0895CF930B
:10028000DF93EC018881882339F0219690E00E9469
:10029000320189918823D1F7DF91CF910895AF92F0
:1002A000BF92CF92DF92EF92FF920F931F93CF9363
:1002B000BC0180E090E020E031EE45EF55E00E9487
:1002C000850E862F972F60E177E20E945E0E5C011B
:1002D0000F2EF4E6EF2EFF24F02DCB01B7010E9484
:1002E0005E0E6C010AE010E0CB01B8010E945E0EC8
:1002F000C82F862F805D0E9432018C2F805D0E9466
:100300003201C601B8010E945E0EC82F862F805DA3
:100310000E9432018C2F805D0E943201C501B7011D
:100320000E945E0E7C01CB01B8010E945E0EC82FB8
:10033000862F805D0E9432018C2F805D0E943201E9
:10034000C701B8010E945E0EC82F862F805D0E94F3
:1003500032018C2F805D0E943201CF911F910F914D
:10036000FF90EF90DF90CF90BF90AF9008955F9B8C
:10037000FECF8CB108951F920F920FB60F921124E9
:100380002F933F934F935F936F937F938F939F939D
:10039000AF93BF93EF93FF938CB1843609F46AC097
:1003A000853648F48D32F1F1813609F4B3C08B32D1
:1003B00009F0C4C00AC0833709F497C0843709F430
:1003C00079C08F3609F0BAC063C088B599B5885135
:1003D0009C4F99BD88BD8CB78E5F8CBF8AB59BB58D
:1003E00023ED8535920720F080EE9BEA9BBD8ABD08
:1003F00088B599B523ED8535920720F080EE9BEA0C
:1004000099BD88BD83B5893C10F08EEB83BD88B55E
:1004100099B50E944F018DE00E9432018AE00E944E
:1004200032018CC088B599B5885E934099BD88BD6E
:100430008CB782508CBF8AB59BB528E08433920775
:1004400020F480EA9FE09BBD8ABD88B599B528E07D
:100450008433920720F480EA9FE099BD88BD88B577
:1004600099B50E944F018DE00E9432018AE00E94FE
:10047000320164C08F9A80E690E00E943F018DE0D7
:100480000E9432018AE00E9432018FE383BD56C090
:10049000D09A9BB32BB381E08227892B8BBB82E65A
:1004A00090E00E943F018DE00E9432018AE00E94AC
:1004B000320144C080917002909171029C01220F20
:1004C000331FC901880F991F880F991F820F931F2F
:1004D0000E944F0184E690E00E943F018DE00E945F
:1004E00032018AE00E94320129C080E484BB15BA3F
:1004F00011BA12BA80E884BB15BA11BA12BA8BE6E7
:1005000090E00E943F018DE00E9432018AE00E944B
:10051000320114C08AB59BB50E944F018DE00E9444
:1005200032018AE00E94320188B599B50E944F01DC
:100530008DE00E9432018AE00E943201FF91EF912A
:10054000BF91AF919F918F917F916F915F914F91EB
:100550003F912F910F900FBE0F901F9018951F92F3
:100560000F920FB60F921124CF92DF92EF92FF926B
:100570000F931F932F933F934F935F936F937F93AB
:100580008F939F93AF93BF93CF93DF93EF93FF939B
:10059000C091D600D091D70064B175B18E01000F23
:1005A000111F000F111F00521F4F80E090E00E94AA
:1005B0006D0D2091920030919300409194005091E4
:1005C00095000E94FB0D20E030E040E85AE30E94D5
:1005D000FB0D23E334E448E851E40E94700C2FE162
:1005E00035E843EC50E40E94D40C20E030E048ECC5
:1005F00052E40E94FB0D20E030E848E853E40E94FA
:100600006F0C20E030E048EC52E40E94FB0DDC016E
:10061000CB01F80180839183A283B3832196D09389
:10062000D700C093D600C436D1050CF4DCC41092B8
:10063000D7001092D6006091E0007091E1008091A7
:10064000E2009091E3002091E4003091E5004091B8
:10065000E6005091E7000E94700C2091E800309174
:10066000E9004091EA005091EB000E94700C20914B
:10067000EC003091ED004091EE005091EF000E94AF
:10068000700C2091F0003091F1004091F2005091F7
:10069000F3000E94700C20E030E048EC52E40E942D
:1006A000D40C6B017C016091F4007091F500809195
:1006B000F6009091F7002091F8003091F9004091F8
:1006C000FA005091FB000E94700C2091FC003091C8
:1006D000FD004091FE005091FF000E94700C20919F
:1006E00000013091010140910201509103010E94EB
:1006F000700C209104013091050140910601509148
:1007000007010E94700C20E030E048EC52E40E94A7
:10071000D40C9B01AC01C701B6010E94700C6B01A7
:100720007C01609108017091090180910A0190910A
:100730000B0120910C0130910D0140910E0150915F
:100740000F010E94700C2091100130911101409115
:100750001201509113010E94700C209114013091EC
:10076000150140911601509117010E94700C2091C3
:1007700018013091190140911A0150911B010E94FA
:10078000700C20E030E048EC52E40E94D40C9B0155
:10079000AC01C701B6010E94700C6B017C01609135
:1007A0001C0170911D0180911E0190911F012091EB
:1007B00020013091210140912201509123010E949A
:1007C000700C209124013091250140912601509117
:1007D00027010E94700C209128013091290140913D
:1007E0002A0150912B010E94700C20912C01309114
:1007F0002D0140912E0150912F010E94700C20E09C
:1008000030E048EC52E40E94D40C9B01AC01C701DB
:10081000B6010E94700C6B017C01609130017091F7
:100820003101809132019091330120913401309156
:10083000350140913601509137010E94700C209192
:1008400038013091390140913A0150913B010E94A9
:10085000700C20913C0130913D0140913E0150913E
:100860003F010E94700C2091400130914101409164
:100870004201509143010E94700C20E030E048ECAE
:1008800052E40E94D40C9B01AC01C701B6010E9446
:10089000700C6B017C016091440170914501809165
:1008A00046019091470120914801309149014091C2
:1008B0004A0150914B010E94700C20914C013091E3
:1008C0004D0140914E0150914F010E94700C2091BA
:1008D00050013091510140915201509153010E94B9
:1008E000700C209154013091550140915601509166
:1008F00057010E94700C20E030E048EC52E40E9466
:10090000D40C9B01AC01C701B6010E94700C6B01B5
:100910007C01609158017091590180915A01909128
:100920005B0120915C0130915D0140915E0150912D
:100930005F010E94700C2091600130916101409133
:100940006201509163010E94700C2091640130910A
:10095000650140916601509167010E94700C2091E1
:1009600068013091690140916A0150916B010E94C8
:10097000700C20E030E048EC52E40E94D40C9B0163
:10098000AC01C701B6010E94700C6B017C01609143
:100990006C0170916D0180916E0190916F012091B9
:1009A00070013091710140917201509173010E9468
:1009B000700C209174013091750140917601509135
:1009C00077010E94700C209178013091790140915B
:1009D0007A0150917B010E94700C20917C01309132
:1009E0007D0140917E0150917F010E94700C20E0BA
:1009F00030E048EC52E40E94D40C9B01AC01C701EA
:100A0000B6010E94700C6B017C01609180017091B5
:100A10008101809182019091830120918401309124
:100A2000850140918601509187010E94700C2091B0
:100A300088013091890140918A0150918B010E9477
:100A4000700C20918C0130918D0140918E0150915C
:100A50008F010E94700C2091900130919101409182
:100A60009201509193010E94700C20E030E048EC1C
:100A700052E40E94D40C9B01AC01C701B6010E9454
:100A8000700C6B017C0160919401709195018091D3
:100A90009601909197012091980130919901409190
:100AA0009A0150919B010E94700C20919C01309101
:100AB0009D0140919E0150919F010E94700C2091D8
:100AC000A0013091A1014091A2015091A3010E9487
:100AD000700C2091A4013091A5014091A601509184
:100AE000A7010E94700C20E030E048EC52E40E9424
:100AF000D40C9B01AC01C701B6010E94700C6B01C4
:100B00007C016091A8017091A9018091AA01909146
:100B1000AB012091AC013091AD014091AE015091FB
:100B2000AF010E94700C2091B0013091B101409151
:100B3000B2015091B3010E94700C2091B401309128
:100B4000B5014091B6015091B7010E94700C2091FF
:100B5000B8013091B9014091BA015091BB010E9496
:100B6000700C20E030E048EC52E40E94D40C9B0171
:100B7000AC01C701B6010E94700C6B017C01609151
:100B8000BC017091BD018091BE019091BF01209187
:100B9000C0013091C1014091C2015091C3010E9436
:100BA000700C2091C4013091C5014091C601509153
:100BB000C7010E94700C2091C8013091C901409179
:100BC000CA015091CB010E94700C2091CC01309150
:100BD000CD014091CE015091CF010E94700C20E0D8
:100BE00030E048EC52E40E94D40C9B01AC01C701F8
:100BF000B6010E94700C6B017C016091D001709174
:100C0000D1018091D2019091D3012091D4013091F2
:100C1000D5014091D6015091D7010E94700C2091CE
:100C2000D8013091D9014091DA015091DB010E9445
:100C3000700C2091DC013091DD014091DE0150917A
:100C4000DF010E94700C2091E0013091E1014091A0
:100C5000E2015091E3010E94700C20E030E048EC8A
:100C600052E40E94D40C9B01AC01C701B6010E9462
:100C7000700C6B017C016091E4017091E501809141
:100C8000E6019091E7012091E8013091E90140915E
:100C9000EA015091EB010E94700C2091EC0130911F
:100CA000ED014091EE015091EF010E94700C2091F6
:100CB000F0013091F1014091F2015091F3010E9455
:100CC000700C2091F4013091F5014091F6015091A2
:100CD000F7010E94700C20E030E048EC52E40E94E2
:100CE000D40C9B01AC01C701B6010E94700C6B01D2
:100CF0007C016091F8017091F9018091FA01909165
:100D0000FB012091FC013091FD014091FE015091C9
:100D1000FF010E94700C209100023091010240916D
:100D20000202509103020E94700C20910402309143
:100D3000050240910602509107020E94700C20911A
:100D400008023091090240910A0250910B020E9460
:100D5000700C20E030E048EC52E40E94D40C9B017F
:100D6000AC01C701B6010E94700C6B017C0160915F
:100D70000C0270910D0280910E0290910F02209151
:100D800010023091110240911202509113020E9400
:100D9000700C20911402309115024091160250916E
:100DA00017020E94700C2091180230911902409194
:100DB0001A0250911B020E94700C20911C0230916B
:100DC0001D0240911E0250911F020E94700C20E0F3
:100DD00030E048EC52E40E94D40C9B01AC01C70106
:100DE000B6010E94700C6B017C0160912002709131
:100DF00021028091220290912302209124023091BD
:100E0000250240912602509127020E94700C2091E9
:100E100028023091290240912A0250912B020E940F
:100E2000700C20912C0230912D0240912E02509195
:100E30002F020E94700C20913002309131024091BB
:100E40003202509133020E94700C20E030E048ECF6
:100E500052E40E94D40C9B01AC01C701B6010E9470
:100E6000700C6B017C0160913402709135028091AD
:100E70003602909137022091380230913902409128
:100E80003A0250913B020E94700C20913C0230913A
:100E90003D0240913E0250913F020E94700C209111
:100EA00040023091410240914202509143020E941F
:100EB000700C2091440230914502409146025091BD
:100EC00047020E94700C20E030E048EC52E40E949F
:100ED000D40C9B01AC01C701B6010E94700C6B01E0
:100EE0007C01609148027091490280914A02909180
:100EF0004B0220914C0230914D0240914E02509194
:100F00004F020E94700C209150023091510240918A
:100F10005202509153020E94700C20915402309161
:100F2000550240915602509157020E94700C209138
:100F300058023091590240915A0250915B020E942E
:100F4000700C20E030E048EC52E40E94D40C9B018D
:100F5000AC01C701B6010E94700C6B017C0160916D
:100F60005C0270915D0280915E0290915F0220911F
:100F700060023091610240916202509163020E94CE
:100F8000700C20916402309165024091660250918C
:100F900067020E94700C20916802309169024091B2
:100FA0006A0250916B020E94700C20916C02309189
:100FB0006D0240916E0250916F020E94700C20E011
:100FC00030E048EC52E40E94D40C9B01AC01C70114
:100FD000B6010E94700C0E943C0DDC01CB01909385
:100FE000BD028093BC02369AFF91EF91DF91CF91C1
:100FF000BF91AF919F918F917F916F915F914F9131
:101000003F912F911F910F91FF90EF90DF90CF9024
:101010000F900FBE0F901F9018951F920F920FB652
:101020000F9211246F927F928F929F92AF92BF92F4
:10103000CF92DF92EF92FF920F931F932F933F93E4
:101040004F935F936F937F938F939F93AF93BF93D0
:10105000CF93DF93EF93FF9314BC8091A200909104
:10106000A30001969093A3008093A2008E31910576
:1010700009F014C31092A3001092A2008091A8005E
:101080009091A90001969093A9008093A800809167
:10109000BC029091BD0264E670E00E94720E7093F3
:1010A0009F0260939E029093D3008093D2008EE0C3
:1010B0000E94FA000E94BC000E94C00080919E0223
:1010C00090919F0266E872E04AE050E00E94C20EF2
:1010D0008091D2009091D3009C01275F3F4F233134
:1010E000310598F480E090E060EA72E04AE050E078
:1010F0000E94C20E8091D2009091D3006EEB72E0FC
:101100004AE050E00E94C20E06C06EEB72E04AE078
:1011100050E00E94C20E8091D2009091D3006EEBFD
:1011200072E04AE050E00E94C20E809196009091D9
:10113000970066E173E04AE050E00E94C20E8DE63F
:1011400090E00E94D90086E892E00E94D90084E7EE
:1011500090E00E94D9008091D2009091D30009962E
:101160008331910548F480EA92E00E94D9008EEB29
:1011700092E00E94D90004C08EEB92E00E94D90058
:1011800086E790E00E94D90086E193E00E94D900B2
:1011900080E061E00E94AE008091980090919900FB
:1011A00060E073E04AE050E00E94C20E4091960079
:1011B0005091970024E630E0429FC001439F900D7C
:1011C000529F900D11242091BC023091BD02821BD0
:1011D000930B62E772E04AE050E00E94C20E8091F9
:1011E000B4029091B50289519C4F27E08F3C920741
:1011F00068F489E790E00E94D90082E792E00E94BB
:10120000D90080E890E00E94D90008C089E790E00A
:101210000E94D90082E792E00E94D90080E890E025
:101220000E94D90080E093E00E94D9008091A8003C
:101230009091A9008830910509F030C21092A90060
:101240001092A8004091A4005091A5002CE330E03A
:10125000429FC001439F900D529F900D11246AE060
:1012600070E00E94720E6B017093B5026093B4023D
:101270008091A0009091A100019664E170E00E942D
:10128000720E9093A1008093A000FC01EE0FFF1F4F
:10129000E655FF4F20912A0330912B0380819181E5
:1012A000281B390BD182C0824601820E931E909278
:1012B0002B0380922A03C0919800D0919900BE011F
:1012C0006C197D09882777FD8095982F0E946F0DF6
:1012D00020918E0030918F004091900050919100AC
:1012E0000E94FB0D6B017C01CE01880F991F880FB6
:1012F000991F9C01220F331F220F331F820F931F50
:1013000088199909DC01BD01882777FD8095982F00
:101310000E946F0D20918A0030918B0040918C00CB
:1013200050918D000E94FB0D9B01AC01C701B601DD
:101330000E94700C0E943C0D862F6093D400709325
:10134000D500209711F41CBE08C09CB7890F8CBF34
:101350008CB7843610F080E58CBF8CB7882309F4F5
:101360001CBE1092A5001092A40092B380E48927BD
:1013700082BBC0919600D091970084E690E0C89F10
:101380008001C99F100DD89F100D11246090BC02E0
:101390007090BD02B80166197709882777FD80959E
:1013A000982F0E946F0D2091860030918700409108
:1013B0008800509189000E94FB0DDC01CB018093D5
:1013C0009A0290939B02A0939C02B0939D02C090BE
:1013D0008200D0908300E0908400F0908500C701E7
:1013E000B60120E030E04AEF54E40E94FB0D4B01CF
:1013F0005C01BE01882777FD8095982F0E946F0DB4
:101400009B01AC01C501B4010E94FB0D4B015C01C5
:10141000C701B6012091D8003091D9004091DA007F
:101420005091DB000E94FB0D9B01AC01C501B40192
:101430000E946F0CDC01CB018093B6029093B7023F
:10144000A093B802B093B902C80105966816790650
:10145000D4F11092FF021092FE028091BA02909194
:10146000BB02009751F481E090E09093BB0280931F
:10147000BA028FE790E09BBD8ABDD89B13C08FB5A1
:101480008F7D8FBDD09AD8988C9A949819BC18BC2F
:101490008FEF9DEEA2E081509040A040E1F700C0A8
:1014A00000004EC08FB580688FBDD19AD99A8D9AB1
:1014B0008AB59BB58A3F910508F442C080EF90E061
:1014C0009BBD8ABD3DC00550104006151705C4F1EF
:1014D0001092BB021092BA028091FE029091FF021C
:1014E000009751F481E090E09093FF028093FE0218
:1014F00084E890E099BD88BDD99B13C08FB58F77E4
:101500008FBDD19AD9988D9A95981BBC1ABC8FEF34
:101510009DEEA2E081509040A040E1F700C00000A5
:101520000FC08FB580628FBDD09AD89A8C9A88B53B
:1015300099B5853F910520F08BEE90E099BD88BD6F
:101540008091BC029091BD020E944F018DE00E94EB
:1015500032018AE00E94320180919E0090919F00AA
:10156000019690939F0080939E008F30910509F023
:1015700095C08091DE009091DF00019664E170E0FB
:101580000E94720E9093DF008093DE008C01000FAA
:10159000111F0C521D4FD8016D917C91882777FD4A
:1015A0008095982F0E946F0D9B01AC016091D8002F
:1015B0007091D9008091DA009091DB000E946F0C4D
:1015C000C62E872E682EF92EC091BC02D091BD0286
:1015D000F801D183C083BE01882777FD8095982FBD
:1015E0000E946F0D9B01AC018C2D982DA62DBF2D57
:1015F000BC01CD010E94700CDC01CB018093D800AE
:101600009093D900A093DA00B093DB0010929F0072
:1016100010929E00209196003091970084E690E011
:10162000289FA001299F500D389F500D1124CA01F9
:101630000596C817D907BCF06AB57BB580E090E085
:101640000E946D0D20919A0230919B0240919C0264
:1016500050919D020E946F0C0E94410DDC01CB0154
:101660009BBD8ABD1BC045505040C417D507B4F47C
:1016700068B579B580E090E00E946D0D20919A02E6
:1016800030919B0240919C0250919D020E94700CEF
:101690000E94410DDC01CB0199BD88BDFF91EF9106
:1016A000DF91CF91BF91AF919F918F917F916F917A
:1016B0005F914F913F912F911F910F91FF90EF906C
:1016C000DF90CF90BF90AF909F908F907F906F9062
:1016D0000F900FBE0F901F9018951F920F920FB68C
:1016E0000F9211242F933F938F939F9383B390E096
:1016F0009C012078307087FF0DC02038310599F4A7
:101700008091960090919700019790939700809315
:10171000960009C080919600909197000196909351
:101720009700809396008091960090919700803169
:1017300091053CF48FE090E09093970080939600A1
:1017400009C08B34910534F08BE490E090939700BE
:10175000809396009F918F913F912F910F900FBE94
:101760000F901F9018951F920F920FB60F92112491
:101770008F939F938091A4009091A50001969093E0
:10178000A5008093A4009F918F910F900FBE0F90A2
:101790001F9018951F920F920FB60F9211242F933E
:1017A0003F938F939F9380B390E09C01207830709B
:1017B00087FF0DC02038310599F4809198009091F1
:1017C0009900C297909399008093980009C08091E6
:1017D000980090919900C2969093990080939800F8
:1017E0008091980090919900181619062CF010928B
:1017F0009900109298000AC02CE08038920734F0CB
:1018000080E89CE090939900809398009F918F913D
:101810003F912F910F900FBE0F901F901895EAEAFD
:10182000F0E0CF01889611921192E817F907D9F7E5
:101830001092A1001092A000E4EDF2E0CF01889692
:1018400011921192E817F907D9F71092DF00109260
:10185000DE00E0EEF0E0CF01889640E050E0BA0113
:101860004193519361937193E817F907C9F7109267
:10187000D7001092D60087B1836487B986B18F6C88
:1018800086B988E087BB1CBE8DE683BF1BBC1ABC33
:101890008FEF90E097BD86BD82E08FBD89E18EBD60
:1018A0008D9A8C9A8FEF83BD8EE085BD89B7806855
:1018B00089BF80E484BF85B78F6085BF8BB7806E9A
:1018C0008BBF8E9A78940E9436018FEF93EDA0E340
:1018D00081509040A040E1F700C00000FFCF505879
:1018E000BB27AA270ED04DC13ED130F043D120F006
:1018F00031F49F3F11F41EF433C10EF4E095E7FB81
:1019000029C1E92F4FD180F3BA1762077307840703
:10191000950718F071F49EF567C10EF4E0950B2E53
:10192000BA2FA02D0B01B90190010C01CA01A00131
:101930001124FF27591B99F0593F50F4503E68F18C
:101940001A16F040A22F232F342F4427585FF3CFCD
:10195000469537952795A795F0405395C9F77EF49E
:101960001F16BA0B620B730B840BBAF09150A1F0E7
:10197000FF0FBB1F661F771F881FC2F70EC0BA0F6D
:10198000621F731F841F48F4879577956795B795F5
:10199000F7959E3F08F0B3CF9395880F08F09927ED
:1019A000EE0F9795879508950CD0EBC0E3D040F0EB
:1019B000DAD030F021F45F3F19F0CCC0511115C1DD
:1019C000CFC0F0D098F39923C9F35523B1F3951BF9
:1019D000550BBB27AA2762177307840738F09F5F50
:1019E0005F4F220F331F441FAA1FA9F333D00E2EBF
:1019F0003AF0E0E830D091505040E695001CCAF72C
:101A000029D0FE2F27D0660F771F881FBB1F2617F0
:101A100037074807AB07B0E809F0BB0B802DBF01C3
:101A2000FF2793585F4F2AF09E3F510568F092C000
:101A3000DCC05F3FECF3983EDCF3869577956795C5
:101A4000B795F7959F5FC9F7880F911D9695879574
:101A500097F90895E1E0660F771F881FBB1F621793
:101A600073078407BA0720F0621B730B840BBA0B51
:101A7000EE1F88F7E095089504D06894B111B5C0C1
:101A8000089598D088F09F5790F0B92F9927B751B3
:101A9000A0F0D1F0660F771F881F991F1AF0BA9532
:101AA000C9F712C0B13081F09FD0B1E008959CC059
:101AB000672F782F8827B85F39F0B93FCCF3869528
:101AC00077956795B395D9F73EF490958095709585
:101AD00061957F4F8F4F9F4F0895E89409C097FB02
:101AE0003EF490958095709561957F4F8F4F9F4FF5
:101AF0009923A9F0F92F96E9BB279395F695879539
:101B000077956795B795F111F8CFFAF4BB0F11F4FB
:101B100060FF1BC06F5F7F4F8F4F9F4F16C08823A2
:101B200011F096E911C0772321F09EE8872F762FD8
:101B300005C0662371F096E8862F70E060E02AF019
:101B40009A95660F771F881FDAF7880F9695879505
:101B500097F9089597F99F6780E870E060E008952D
:101B60009FEF80EC089500240A94161617061806B5
:101B70000906089500240A94121613061406050691
:101B80000895092E0394000C11F4882352F0BB0F22
:101B900040F4BF2B11F460FF04C06F5F7F4F8F4F85
:101BA0009F4F089557FD9058440F551F59F05F3FC0
:101BB00071F04795880F97FB991F61F09F3F79F06F
:101BC00087950895121613061406551FF2CF4695F1
:101BD000F1DF08C0161617061806991FF1CF869573
:101BE0007105610508940895E894BB276627772757
:101BF000CB0197F908950BD0C4CFB5DF28F0BADF39
:101C000018F0952309F0A6CFABCF1124EECFCADF91
:101C1000A0F3959FD1F3950F50E0551F629FF001FF
:101C2000729FBB27F00DB11D639FAA27F00DB11D58
:101C3000AA1F649F6627B00DA11D661F829F2227E1
:101C4000B00DA11D621F739FB00DA11D621F839F68
:101C5000A00D611D221F749F3327A00D611D231F3E
:101C6000849F600D211D822F762F6A2F11249F578C
:101C700050408AF0E1F088234AF0EE0FFF1FBB1FAF
:101C8000661F771F881F91505040A9F79E3F51054E
:101C900070F060CFAACF5F3FECF3983EDCF38695FF
:101CA00077956795B795F795E7959F5FC1F7FE2BF9
:101CB000880F911D9695879597F90895AA1BBB1BD0
:101CC00051E107C0AA1FBB1FA617B70710F0A61B3C
:101CD000B70B881F991F5A95A9F780959095BC015D
:101CE000CD01089597FB092E07260AD077FD04D071
:101CF000E5DF06D000201AF4709561957F4F0895B6
:101D0000F6F7909581959F4F089597FB092E05262C
:101D10000ED057FD04D014D00AD0001C38F45095D2
:101D20004095309521953F4F4F4F5F4F0895F6F7FF
:101D300090958095709561957F4F8F4F9F4F089537
:101D4000A1E21A2EAA1BBB1BFD010DC0AA1FBB1FBF
:101D5000EE1FFF1FA217B307E407F50720F0A21B31
:101D6000B30BE40BF50B661F771F881F991F1A949E
:101D700069F760957095809590959B01AC01BD01C8
:101D8000CF010895FB019F01E8944230C4F0453231
:101D9000B4F44A3029F497FB1EF4909581959F4F37
:101DA000642F77270E945E0E805D8A330CF0895D78
:101DB0008193CB010097A1F716F45DE25193108255
:101DC000C9010C94E30EDC01FC01672F71917723AC
:101DD000E1F7329704C07C916D9370836291AE17E6
:0A1DE000BF07C8F30895F894FFCF81
:101DEA0064006F002A3130452D3100730074656D2F
:101DFA00703A20002E0020200072706D203A2000D8
:101E0A0020006F12033A0AD7233CACC5A7365839CB
:0C1E1A00B43B0AD7A3401900F40190016A
:00000001FF
