:100000000C942A000C94F20B0C94DB0B0C940D084E
:100010000C9447000C9447000C9447000C94470044
:100020000C9447000C9447000C9447000C94BB01BF
:100030000C9447000C9447000C94AF020C944700BA
:100040000C9447000C9447000C94950B0C944700BB
:100050000C94470011241FBECFE5D4E0DEBFCDBF16
:1000600010E0A0E6B0E0E0E4FEE102C005900D92F1
:10007000A23AB107D9F713E0A2EAB0E001C01D929D
:10008000A633B107E1F70E94370C0C941E0F0C94B5
:100090000000AE9A83E08A95F1F70000AE980895CB
:1000A000CF93DF93D82F662311F0AC9A01C0AC98A0
:1000B000AD9884B38F6084BBC5B3C07F8D2F82950C
:1000C0008F708C2B85BB0E944900DF70DC2BD5BB69
:1000D0000E944900CF60C5BBDF91CF91089588236E
:1000E00011F0AC9A01C0AC98AD9A84B3807F84BB08
:1000F000AE9A83E08A95F1F7000093B3AE9883E05F
:100100008A95F1F70000AE9A83E08A95F1F7000036
:1001100083B39295907F8F70AE98892B089580E07D
:100120000E946F008823DCF300C000C080E00E94C2
:100130006F000895CF93C82F0E948F008C2F60E02E
:100140000E945000CF910895CF93C82F0E948F0036
:100150008C2F61E00E945000CF910895662321F416
:1001600080580E949A00089580540E949A00089531
:100170000E948F0090E0089581E00E949A00089507
:1001800082E00E949A000895CF93C82F0E948F00AA
:10019000CA3049F4803410F480E401C080E0805813
:1001A0000E949A0004C08C2F61E00E945000CF9101
:1001B0000895CF93DF93EC018881882331F0219655
:1001C0000E94C40089918823D9F7DF91CF910895C7
:1001D000CF93DF93EC01FC018491882341F02196B9
:1001E0000E94C400FE01219684918823C9F7DF9103
:1001F000CF910895CF93C82F84B38F6784BB8FE9C5
:100200009FE00197F1F700C00000A99AA89A0E9408
:10021000490081EE94E00197F1F700C000000E94D0
:10022000490095E19A95F1F700000E94490085E1A7
:100230008A95F1F70000A8980E94490095E19A95E7
:10024000F1F7000088E20E949A0088E00E949A007C
:100250000E94BC0086E00E949A008C2F0E949A00A7
:10026000CF9108955D9BFECF8CB9089510BC87E6B1
:1002700089B91BB888E98AB986E880BD0895CF930B
:10028000DF93EC018881882339F0219690E00E9469
:10029000320189918823D1F7DF91CF910895AF92F0
:1002A000BF92CF92DF92EF92FF920F931F93CF9363
:1002B000BC0180E090E020E031EE45EF55E00E9487
:1002C000B00E862F972F60E177E20E94890E5C01C5
:1002D0000F2EF4E6EF2EFF24F02DCB01B7010E9484
:1002E000890E6C010AE010E0CB01B8010E94890E72
:1002F000C82F862F805D0E9432018C2F805D0E9466
:100300003201C601B8010E94890EC82F862F805D78
:100310000E9432018C2F805D0E943201C501B7011D
:100320000E94890E7C01CB01B8010E94890EC82F62
:10033000862F805D0E9432018C2F805D0E943201E9
:10034000C701B8010E94890EC82F862F805D0E94C8
:1003500032018C2F805D0E943201CF911F910F914D
:10036000FF90EF90DF90CF90BF90AF9008955F9B8C
:10037000FECF8CB108951F920F920FB60F921124E9
:100380002F933F934F935F936F937F938F939F939D
:10039000AF93BF93EF93FF938CB1843609F46AC097
:1003A000853648F48D32F1F1813609F4B3C08B32D1
:1003B00009F0C4C00AC0833709F497C0843709F430
:1003C00079C08F3609F0BAC063C088B599B5885135
:1003D0009C4F99BD88BD8CB78E5F8CBF8AB59BB58D
:1003E00023ED8535920720F080EE9BEA9BBD8ABD08
:1003F00088B599B523ED8535920720F080EE9BEA0C
:1004000099BD88BD83B5893C10F08EEB83BD88B55E
:1004100099B50E944F018DE00E9432018AE00E944E
:1004200032018CC088B599B5885E934099BD88BD6E
:100430008CB782508CBF8AB59BB528E08433920775
:1004400020F480EA9FE09BBD8ABD88B599B528E07D
:100450008433920720F480EA9FE099BD88BD88B577
:1004600099B50E944F018DE00E9432018AE00E94FE
:10047000320164C08F9A80E690E00E943F018DE0D7
:100480000E9432018AE00E9432018FE383BD56C090
:10049000D09A9BB32BB381E08227892B8BBB82E65A
:1004A00090E00E943F018DE00E9432018AE00E94AC
:1004B000320144C080917A0290917B029C01220F0C
:1004C000331FC901880F991F880F991F820F931F2F
:1004D0000E944F0184E690E00E943F018DE00E945F
:1004E00032018AE00E94320129C080E484BB15BA3F
:1004F00011BA12BA80E884BB15BA11BA12BA8BE6E7
:1005000090E00E943F018DE00E9432018AE00E944B
:10051000320114C08AB59BB50E944F018DE00E9444
:1005200032018AE00E94320188B599B50E944F01DC
:100530008DE00E9432018AE00E943201FF91EF912A
:10054000BF91AF919F918F917F916F915F914F91EB
:100550003F912F910F900FBE0F901F9018951F92F3
:100560000F920FB60F921124CF92DF92EF92FF926B
:100570000F931F932F933F934F935F936F937F93AB
:100580008F939F93AF93BF93CF93DF93EF93FF939B
:10059000C091E000D091E10064B175B18E01000F0F
:1005A000111F000F111F06511F4F80E090E00E94A5
:1005B000980D209198003091990040919A005091A7
:1005C0009B000E94260E20E030E040E85AE30E94A3
:1005D000260E23E334E448E851E40E949B0C2FE10B
:1005E00035E843EC50E40E94FF0C20E030E048EC9A
:1005F00052E40E94260E20E030E848E853E40E94CE
:100600009A0C20E030E048EC52E40E94260EDC0117
:10061000CB01F80180839183A283B3832196D09389
:10062000E100C093E000C436D1050CF4DCC41092A4
:10063000E1001092E0006091EA007091EB0080917F
:10064000EC009091ED002091EE003091EF00409190
:10065000F0005091F1000E949B0C2091F20030912B
:10066000F3004091F4005091F5000E949B0C209102
:10067000F6003091F7004091F8005091F9000E9487
:100680009B0C2091FA003091FB004091FC005091AE
:10069000FD000E949B0C20E030E048EC52E40E94F8
:1006A000FF0C6B017C016091FE007091FF00809156
:1006B00000019091010120910201309103014091CC
:1006C0000401509105010E949B0C2091060130917C
:1006D000070140910801509109010E949B0C209153
:1006E0000A0130910B0140910C0150910D010E94C3
:1006F0009B0C20910E0130910F01409110015091FF
:1007000011010E949B0C20E030E048EC52E40E9472
:10071000FF0C9B01AC01C701B6010E949B0C6B0151
:100720007C016091120170911301809114019091EC
:100730001501209116013091170140911801509137
:1007400019010E949B0C20911A0130911B014091CC
:100750001C0150911D010E949B0C20911E013091A3
:100760001F0140912001509121010E949B0C20917A
:1007700022013091230140912401509125010E94D2
:100780009B0C20E030E048EC52E40E94FF0C9B01FF
:10079000AC01C701B6010E949B0C6B017C0160910A
:1007A00026017091270180912801909129012091C3
:1007B0002A0130912B0140912C0150912D010E9472
:1007C0009B0C20912E0130912F01409130015091CE
:1007D00031010E949B0C20913201309133014091F4
:1007E0003401509135010E949B0C209136013091CB
:1007F000370140913801509139010E949B0C20E053
:1008000030E048EC52E40E94FF0C9B01AC01C701B0
:10081000B6010E949B0C6B017C0160913A017091C2
:100820003B0180913C0190913D0120913E0130912E
:100830003F0140914001509141010E949B0C209149
:1008400042013091430140914401509145010E9481
:100850009B0C2091460130914701409148015091F5
:1008600049010E949B0C20914A0130914B0140911B
:100870004C0150914D010E949B0C20E030E048EC6F
:1008800052E40E94FF0C9B01AC01C701B6010E941B
:100890009B0C6B017C0160914E0170914F01809126
:1008A000500190915101209152013091530140919A
:1008B0005401509155010E949B0C2091560130919A
:1008C000570140915801509159010E949B0C209171
:1008D0005A0130915B0140915C0150915D010E9491
:1008E0009B0C20915E0130915F014091600150911D
:1008F00061010E949B0C20E030E048EC52E40E9431
:10090000FF0C9B01AC01C701B6010E949B0C6B015F
:100910007C0160916201709163018091640190910A
:100920006501209166013091670140916801509105
:1009300069010E949B0C20916A0130916B014091EA
:100940006C0150916D010E949B0C20916E013091C1
:100950006F0140917001509171010E949B0C209198
:1009600072013091730140917401509175010E94A0
:100970009B0C20E030E048EC52E40E94FF0C9B010D
:10098000AC01C701B6010E949B0C6B017C01609118
:100990007601709177018091780190917901209191
:1009A0007A0130917B0140917C0150917D010E9440
:1009B0009B0C20917E0130917F01409180015091EC
:1009C00081010E949B0C2091820130918301409112
:1009D0008401509185010E949B0C209186013091E9
:1009E000870140918801509189010E949B0C20E071
:1009F00030E048EC52E40E94FF0C9B01AC01C701BF
:100A0000B6010E949B0C6B017C0160918A01709180
:100A10008B0180918C0190918D0120918E013091FC
:100A20008F0140919001509191010E949B0C209167
:100A300092013091930140919401509195010E944F
:100A40009B0C209196013091970140919801509113
:100A500099010E949B0C20919A0130919B01409139
:100A60009C0150919D010E949B0C20E030E048ECDD
:100A700052E40E94FF0C9B01AC01C701B6010E9429
:100A80009B0C6B017C0160919E0170919F01809194
:100A9000A0019091A1012091A2013091A301409168
:100AA000A4015091A5010E949B0C2091A6013091B8
:100AB000A7014091A8015091A9010E949B0C20918F
:100AC000AA013091AB014091AC015091AD010E945F
:100AD0009B0C2091AE013091AF014091B00150913B
:100AE000B1010E949B0C20E030E048EC52E40E94EF
:100AF000FF0C9B01AC01C701B6010E949B0C6B016E
:100B00007C016091B2017091B3018091B401909128
:100B1000B5012091B6013091B7014091B8015091D3
:100B2000B9010E949B0C2091BA013091BB01409108
:100B3000BC015091BD010E949B0C2091BE013091DF
:100B4000BF014091C0015091C1010E949B0C2091B6
:100B5000C2013091C3014091C4015091C5010E946E
:100B60009B0C20E030E048EC52E40E94FF0C9B011B
:100B7000AC01C701B6010E949B0C6B017C01609126
:100B8000C6017091C7018091C8019091C90120915F
:100B9000CA013091CB014091CC015091CD010E940E
:100BA0009B0C2091CE013091CF014091D00150910A
:100BB000D1010E949B0C2091D2013091D301409130
:100BC000D4015091D5010E949B0C2091D601309107
:100BD000D7014091D8015091D9010E949B0C20E08F
:100BE00030E048EC52E40E94FF0C9B01AC01C701CD
:100BF000B6010E949B0C6B017C016091DA0170913F
:100C0000DB018091DC019091DD012091DE013091CA
:100C1000DF014091E0015091E1010E949B0C209185
:100C2000E2013091E3014091E4015091E5010E941D
:100C30009B0C2091E6013091E7014091E801509131
:100C4000E9010E949B0C2091EA013091EB01409157
:100C5000EC015091ED010E949B0C20E030E048EC4B
:100C600052E40E94FF0C9B01AC01C701B6010E9437
:100C70009B0C6B017C016091EE017091EF01809102
:100C8000F0019091F1012091F2013091F301409136
:100C9000F4015091F5010E949B0C2091F6013091D6
:100CA000F7014091F8015091F9010E949B0C2091AD
:100CB000FA013091FB014091FC015091FD010E942D
:100CC0009B0C2091FE013091FF0140910002509158
:100CD00001020E949B0C20E030E048EC52E40E94AC
:100CE000FF0C9B01AC01C701B6010E949B0C6B017C
:100CF0007C01609102027091030280910402909144
:100D0000050220910602309107024091080250919D
:100D100009020E949B0C20910A0230910B02409123
:100D20000C0250910D020E949B0C20910E023091FA
:100D30000F0240911002509111020E949B0C2091D1
:100D400012023091130240911402509115020E9438
:100D50009B0C20E030E048EC52E40E94FF0C9B0129
:100D6000AC01C701B6010E949B0C6B017C01609134
:100D70001602709117028091180290911902209129
:100D80001A0230911B0240911C0250911D020E94D8
:100D90009B0C20911E0230911F0240912002509125
:100DA00021020E949B0C209122023091230240914B
:100DB0002402509125020E949B0C20912602309122
:100DC000270240912802509129020E949B0C20E0AA
:100DD00030E048EC52E40E94FF0C9B01AC01C701DB
:100DE000B6010E949B0C6B017C0160912A027091FC
:100DF0002B0280912C0290912D0220912E02309195
:100E00002F0240913002509131020E949B0C2091A0
:100E100032023091330240913402509135020E94E7
:100E20009B0C20913602309137024091380250914C
:100E300039020E949B0C20913A0230913B02409172
:100E40003C0250913D020E949B0C20E030E048ECB7
:100E500052E40E94FF0C9B01AC01C701B6010E9445
:100E60009B0C6B017C0160913E0270913F0280916E
:100E70004002909141022091420230914302409100
:100E80004402509145020E949B0C209146023091F1
:100E9000470240914802509149020E949B0C2091C8
:100EA0004A0230914B0240914C0250914D020E94F7
:100EB0009B0C20914E0230914F0240915002509174
:100EC00051020E949B0C20E030E048EC52E40E946A
:100ED000FF0C9B01AC01C701B6010E949B0C6B018A
:100EE0007C01609152027091530280915402909162
:100EF000550220915602309157024091580250916C
:100F000059020E949B0C20915A0230915B02409141
:100F10005C0250915D020E949B0C20915E02309118
:100F20005F0240916002509161020E949B0C2091EF
:100F300062023091630240916402509165020E9406
:100F40009B0C20E030E048EC52E40E94FF0C9B0137
:100F5000AC01C701B6010E949B0C6B017C01609142
:100F600066027091670280916802909169022091F7
:100F70006A0230916B0240916C0250916D020E94A6
:100F80009B0C20916E0230916F0240917002509143
:100F900071020E949B0C2091720230917302409169
:100FA0007402509175020E949B0C20917602309140
:100FB000770240917802509179020E949B0C20E0C8
:100FC00030E048EC52E40E94FF0C9B01AC01C701E9
:100FD000B6010E949B0C0E94670DDC01CB0190932F
:100FE000C7028093C602369AFF91EF91DF91CF91AD
:100FF000BF91AF919F918F917F916F915F914F9131
:101000003F912F911F910F91FF90EF90DF90CF9024
:101010000F900FBE0F901F9018951F920F920FB652
:101020000F9211246F927F928F929F92AF92BF92F4
:10103000CF92DF92EF92FF920F931F932F933F93E4
:101040004F935F936F937F938F939F93AF93BF93D0
:10105000CF93DF93EF93FF9314BC8091AC009091FA
:10106000AD0001969093AD008093AC008E31910558
:1010700009F03CC31092AD001092AC0089B390E02F
:101080009C012072307085FF04C020323105B9F414
:1010900010C08091A2009091A3008130910549F485
:1010A0008091A4009091A50001969093A500809353
:1010B000A40081E090E09093A3008093A20080912F
:1010C000B2009091B30001969093B3008093B20068
:1010D0008091C6029091C70264E670E00E949D0E66
:1010E0007093A9026093A8029093DD008093DC00C6
:1010F0008EE00E94FA000E94BC000E94C000809115
:10110000A8029091A90260E972E04AE050E00E94D2
:10111000ED0E8091DC009091DD009C01275F3F4F38
:101120002331310598F480E090E06AEA72E04AE009
:1011300050E00E94ED0E8091DC009091DD0068ECA3
:1011400072E04AE050E00E94ED0E06C068EC72E0EA
:101150004AE050E00E94ED0E8091DC009091DD00AD
:1011600068EC72E04AE050E00E94ED0E80919C0035
:1011700090919D0060E273E04AE050E00E94ED0E25
:101180008DE690E00E94D9008091A40080FD05C00A
:1011900084E790E00E94D90025C080E992E00E9497
:1011A000D9008AE790E00E94D9008091DC009091FC
:1011B000DD0009968331910548F48AEA92E00E94A5
:1011C000D90088EC92E00E94D90004C088EC92E03B
:1011D0000E94D9008CE790E00E94D90080E293E061
:1011E0000E94D90080E061E00E94AE0080919E00E4
:1011F00090919F006AE073E04AE050E00E94ED0E9B
:1012000040919C0050919D0024E630E0429FC00137
:10121000439F900D529F900D11242091C602309152
:10122000C702821B930B6CE772E04AE050E00E9419
:10123000ED0E8091BE029091BF0289519C4F27E034
:101240008F3C920768F48FE790E00E94D9008CE70A
:1012500092E00E94D90086E890E00E94D90008C080
:101260008FE790E00E94D9008CE792E00E94D900BD
:1012700086E890E00E94D9008AE093E00E94D900BD
:101280008091B2009091B3008830910509F02EC290
:101290001092B3001092B2004091AE005091AF0096
:1012A0002CE330E0429FC001439F900D529F900D70
:1012B00011246AE070E00E949D0E6B017093BF02E2
:1012C0006093BE028091AA009091AB00019664E108
:1012D00070E00E949D0E9093AB008093AA00FC01E9
:1012E000EE0FFF1FEC54FF4F209134033091350374
:1012F00080819181281B390BD182C0824601820EE8
:10130000931E9092350380923403C0919E00D09139
:101310009F00BE016C197D09882777FD8095982F65
:101320000E949A0D20919400309195004091960072
:10133000509197000E94260E6B017C01CE01880F10
:10134000991F880F991F9C01220F331F220F331FF3
:10135000820F931F88199909DC01BD01882777FD49
:101360008095982F0E949A0D2091900030919100C5
:1013700040919200509193000E94260E9B01AC0177
:10138000C701B6010E949B0C0E94670D862F6093D7
:10139000DE007093DF00209711F41CBE08C09CB7DC
:1013A000890F8CBF8CB7843610F080E58CBF8CB76A
:1013B000882309F41CBE1092AF001092AE0092B3C5
:1013C00080E4892782BBC0919C00D0919D0084E677
:1013D00090E0C89F8001C99F100DD89F100D112467
:1013E0006090C6027090C702B80166197709882715
:1013F00077FD8095982F0E949A0D20918C00309156
:101400008D0040918E0050918F000E94260EDC01CD
:10141000CB018093A4029093A502A093A602B0935F
:10142000A702C0908800D0908900E0908A00F090D8
:101430008B00C701B60120E030E04AEF54E40E947F
:10144000260E4B015C01BE01882777FD8095982F01
:101450000E949A0D9B01AC01C501B4010E94260EA9
:101460004B015C01C701B6012091E2003091E3001D
:101470004091E4005091E5000E94260E9B01AC01D2
:10148000C501B4010E949A0CDC01CB018093C0021B
:101490009093C102A093C202B093C302C801059603
:1014A00068167906D4F1109209031092080380910E
:1014B000C4029091C502009751F481E090E09093AE
:1014C000C5028093C4028FE790E09BBD8ABDD89B84
:1014D00013C08FB58F7D8FBDD09AD8988C9A949871
:1014E00019BC18BC8FEF9DEEA2E081509040A04047
:1014F000E1F700C000004EC08FB580688FBDD19A63
:10150000D99A8D9A8AB59BB58A3F910508F442C055
:1015100080EF90E09BBD8ABD3DC005501040061590
:101520001705C4F11092C5021092C40280910803FD
:1015300090910903009751F481E090E090930903A2
:101540008093080384E890E099BD88BDD99B13C0BF
:101550008FB58F778FBDD19AD9988D9A95981BBCEE
:101560001ABC8FEF9DEEA2E081509040A040E1F7C1
:1015700000C000000FC08FB580628FBDD09AD89A8E
:101580008C9A88B599B5853F910520F08BEE90E057
:1015900099BD88BD8091C6029091C7020E944F01FB
:1015A0008DE00E9432018AE00E9432018091A80001
:1015B0009091A90001969093A9008093A8008F3084
:1015C000910509F093C08091E8009091E90001969F
:1015D00064E170E00E949D0E9093E9008093E80022
:1015E000EC01CC0FDD1FC252DD4F68817981882765
:1015F00077FD8095982F0E949A0D9B01AC01609118
:10160000E2007091E3008091E4009091E5000E9477
:101610009A0CC62E872E682EF92E0091C6021091C4
:10162000C70219830883B801882777FD8095982F12
:101630000E949A0D9B01AC018C2D982DA62DBF2DDB
:10164000BC01CD010E949B0CDC01CB018093E20028
:101650009093E300A093E400B093E5001092A900FA
:101660001092A80020919C0030919D0084E690E0AB
:10167000289FA001299F500D389F500D1124CA01A9
:10168000059608171907BCF06AB57BB580E090E0B5
:101690000E94980D2091A4023091A5024091A602CB
:1016A0005091A7020E949A0C0E946C0DDC01CB01A4
:1016B0009BBD8ABD1BC04550504004171507B4F4AC
:1016C00068B579B580E090E00E94980D2091A40261
:1016D0003091A5024091A6025091A7020E949B0C56
:1016E0000E946C0DDC01CB0199BD88BDFF91EF918B
:1016F000DF91CF91BF91AF919F918F917F916F912A
:101700005F914F913F912F911F910F91FF90EF901B
:10171000DF90CF90BF90AF909F908F907F906F9011
:101720000F900FBE0F901F9018951F920F920FB63B
:101730000F9211242F933F938F939F9383B390E045
:101740009C012078307087FF0DC02038310599F456
:1017500080919C0090919D00019790939D008093B3
:101760009C0009C080919C0090919D0001969093EF
:101770009D0080939C0080919C0090919D00803101
:1017800091053CF48FE090E090939D0080939C0045
:1017900009C08B34910534F08BE490E090939D0068
:1017A00080939C009F918F913F912F910F900FBE3E
:1017B0000F901F9018951F920F920FB60F92112441
:1017C0008F939F938091AE009091AF00019690937C
:1017D000AF008093AE009F918F910F900FBE0F903E
:1017E0001F9018951F920F920FB60F9211242F93EE
:1017F0003F938F939F9380B390E09C01207830704B
:1018000087FF0DC02038310599F480919E0090919A
:101810009F00C29790939F0080939E0009C0809183
:101820009E0090919F00C29690939F0080939E008F
:1018300080919E0090919F00181619062CF010922E
:101840009F0010929E000AC02CE08038920734F06E
:1018500080E89CE090939F0080939E009F918F91E1
:101860003F912F910F900FBE0F901F901895E4EBB2
:10187000F0E0CF01889611921192E817F907D9F795
:101880001092AB001092AA00EEEDF2E0CF01889624
:1018900011921192E817F907D9F71092E900109206
:1018A000E800EAEEF0E0CF01889640E050E0BA01AF
:1018B0004193519361937193E817F907C9F7109217
:1018C000E1001092E00087B1836487B986B18F6C24
:1018D00086B988E087BB1CBE8DE683BF1BBC1ABCE3
:1018E0008FEF90E097BD86BD82E08FBD89E18EBD10
:1018F0008D9A8C9A8AB38ABBDD9A8FEF83BD8EE076
:1019000085BD89B7806889BF80E484BF85B78F6053
:1019100085BF8BB7806E8BBF8E9A78940E943601FC
:101920008FEF93EDA0E381509040A040E1F700C01D
:101930000000FFCF5058BB27AA270ED04DC13ED183
:1019400030F043D120F031F49F3F11F41EF433C145
:101950000EF4E095E7FB29C1E92F4FD180F3BA17C8
:10196000620773078407950718F071F49EF567C145
:101970000EF4E0950B2EBA2FA02D0B01B9019001AA
:101980000C01CA01A0011124FF27591B99F0593FEE
:1019900050F4503E68F11A16F040A22F232F342F36
:1019A0004427585FF3CF469537952795A795F04084
:1019B0005395C9F77EF41F16BA0B620B730B840B99
:1019C000BAF09150A1F0FF0FBB1F661F771F881F51
:1019D000C2F70EC0BA0F621F731F841F48F48795A9
:1019E00077956795B795F7959E3F08F0B3CF939598
:1019F000880F08F09927EE0F9795879508950CD0DA
:101A0000EBC0E3D040F0DAD030F021F45F3F19F0C2
:101A1000CCC0511115C1CFC0F0D098F39923C9F3B0
:101A20005523B1F3951B550BBB27AA2762177307E4
:101A3000840738F09F5F5F4F220F331F441FAA1F98
:101A4000A9F333D00E2E3AF0E0E830D09150504058
:101A5000E695001CCAF729D0FE2F27D0660F771F06
:101A6000881FBB1F261737074807AB07B0E809F0E8
:101A7000BB0B802DBF01FF2793585F4F2AF09E3F7D
:101A8000510568F092C0DCC05F3FECF3983EDCF398
:101A9000869577956795B795F7959F5FC9F7880FF6
:101AA000911D9695879597F90895E1E0660F771F48
:101AB000881FBB1F621773078407BA0720F0621BD9
:101AC000730B840BBA0BEE1F88F7E095089504D0D2
:101AD0006894B111B5C0089598D088F09F5790F0E0
:101AE000B92F9927B751A0F0D1F0660F771F881F43
:101AF000991F1AF0BA95C9F712C0B13081F09FD082
:101B0000B1E008959CC0672F782F8827B85F39F01F
:101B1000B93FCCF3869577956795B395D9F73EF4A1
:101B200090958095709561957F4F8F4F9F4F089549
:101B3000E89409C097FB3EF4909580957095619567
:101B40007F4F8F4F9F4F9923A9F0F92F96E9BB271D
:101B50009395F695879577956795B795F111F8CF99
:101B6000FAF4BB0F11F460FF1BC06F5F7F4F8F4F04
:101B70009F4F16C0882311F096E911C0772321F0FA
:101B80009EE8872F762F05C0662371F096E8862F92
:101B900070E060E02AF09A95660F771F881FDAF7E9
:101BA000880F9695879597F9089597F99F6780E82C
:101BB00070E060E008959FEF80EC089500240A949F
:101BC0001616170618060906089500240A94121618
:101BD0001306140605060895092E0394000C11F44B
:101BE000882352F0BB0F40F4BF2B11F460FF04C0F8
:101BF0006F5F7F4F8F4F9F4F089557FD9058440F51
:101C0000551F59F05F3F71F04795880F97FB991F5B
:101C100061F09F3F79F08795089512161306140618
:101C2000551FF2CF4695F1DF08C0161617061806A5
:101C3000991FF1CF86957105610508940895E89480
:101C4000BB2766277727CB0197F908950BD0C4CF20
:101C5000B5DF28F0BADF18F0952309F0A6CFABCF97
:101C60001124EECFCADFA0F3959FD1F3950F50E07A
:101C7000551F629FF001729FBB27F00DB11D639F3E
:101C8000AA27F00DB11DAA1F649F6627B00DA11DE4
:101C9000661F829F2227B00DA11D621F739FB00D8A
:101CA000A11D621F839FA00D611D221F749F3327FA
:101CB000A00D611D231F849F600D211D822F762F93
:101CC0006A2F11249F5750408AF0E1F088234AF090
:101CD000EE0FFF1FBB1F661F771F881F91505040DC
:101CE000A9F79E3F510570F060CFAACF5F3FECF39C
:101CF000983EDCF3869577956795B795F795E795C8
:101D00009F5FC1F7FE2B880F911D9695879597F9D8
:101D10000895AA1BBB1B51E107C0AA1FBB1FA61732
:101D2000B70710F0A61BB70B881F991F5A95A9F784
:101D300080959095BC01CD01089597FB092E07264B
:101D40000AD077FD04D0E5DF06D000201AF47095A4
:101D500061957F4F0895F6F7909581959F4F08956F
:101D600097FB092E05260ED057FD04D014D00AD0BB
:101D7000001C38F450954095309521953F4F4F4FBA
:101D80005F4F0895F6F790958095709561957F4F18
:101D90008F4F9F4F0895A1E21A2EAA1BBB1BFD0176
:101DA0000DC0AA1FBB1FEE1FFF1FA217B307E4073A
:101DB000F50720F0A21BB30BE40BF50B661F771F92
:101DC000881F991F1A9469F7609570958095909572
:101DD0009B01AC01BD01CF010895FB019F01E89477
:101DE0004230C4F04532B4F44A3029F497FB1EF473
:101DF000909581959F4F642F77270E94890E805D73
:101E00008A330CF0895D8193CB010097A1F716F41A
:101E10005DE251931082C9010C940E0FDC01FC01AC
:101E2000672F71917723E1F7329704C07C916D930E
:101E300070836291AE17BF07C8F30895F894FFCF7F
:101E400064006F002A3130452D3100730074656DD8
:101E5000703A2000206F666620002E00202000725D
:101E6000706D203A200020006F12033A0AD7233CFD
:101E7000ACC5A7365839B43B0AD7A3401900F401C2
:021E80009001CF
:00000001FF
